:020000040800F2
:100000009007002039030008690200086B0200080D
:100010006D0200086F020008710200080000000075
:100020000000000000000000000000007302000853
:10003000750200080000000077020008790200083D
:100040005303000853030008530300085303000838
:100050005303000853030008530300085303000828
:100060005303000853030008530300085303000818
:100070005303000853030008530300085303000808
:1000800053030008530300085303000853030008F8
:1000900053030008530300085303000853030008E8
:1000A00053030008530300085303000853030008D8
:1000B00053030008530300085303000853030008C8
:1000C00053030008530300085303000853030008B8
:1000D000530300087B020008530300085303000881
:1000E0005303000853030008530300085303000898
:1000F0005303000853030008530300085303000888
:100100005303000853030008530300085303000877
:100110005303000853030008530300085303000867
:100120005303000853030008530300085303000857
:100130005303000853030008530300085303000847
:100140005303000853030008530300085303000837
:100150005303000853030008530300085303000827
:100160005303000853030008530300085303000817
:100170005303000853030008530300085303000807
:10018000530300085303000800F002F800F049F898
:100190000AA090E8000C82448344AAF10107DA45E2
:1001A00001D100F03EF8AFF2090EBAE80F0013F0EB
:1001B000010F18BFFB1A43F0010318475018000045
:1001C00070180000103A24BF78C878C1FAD85207D6
:1001D00024BF30C830C144BF04680C6070470000C1
:1001E0000023002400250026103A28BF78C1FBD840
:1001F000520728BF30C148BF0B607047632900F029
:100200006986002070471FB501F0F5FB9DE80300EB
:1002100001F0B6F900F098FE1FBD10B500F0FDFE2C
:1002200010BD00F060FF1146FFF7EDFF00F008F889
:1002300001F050F903B4FFF7F0FF03BC01F032FB0B
:1002400000F04CF84021064800F05BF91021054809
:1002500000F059F9FEE700E0401E0028FCD170478D
:1002600000000240000802407047FEE7FEE7FEE79C
:10027000FEE7704770477047704710B5084C40F272
:100280002551204600F0C1FC002808D0204600F08F
:1002900025FC0146BDE8104002A000F0A5BD10BD40
:1002A000004800400A0D555341525420487970656A
:1002B000727465726D696E616C20496E74657272DC
:1002C0007570747320526563656976652061207767
:1002D0006F72643A2025630A0D0000007CB501218D
:1002E000042000F061FA0121084600F05DFA0124C3
:1002F0008DF80440002613208DF806600325009039
:100300008DF805508DF807406946094800F094F8CB
:100310008DF8044040208DF8066000908DF805505F
:100320008DF807406946034800F086F87CBD000060
:100330000008024000000240094880470948004781
:10034000FEE7FEE7FEE7FEE7FEE7FEE7FEE7FEE785
:10035000FEE7FEE704480549054A064B70470000E2
:100360000F0D00088901000890010020900700206F
:100370009003002090030020714910B5884206D1F7
:100380000121084600F042FA002101204FE06D49AA
:10039000884206D10121022000F038FA0021022013
:1003A00045E06949884206D10121042000F02EFA77
:1003B000002104203BE06549884206D10121082044
:1003C00000F024FA0021082031E06149884206D17A
:1003D0000121102000F01AFA0021102027E05D49C9
:1003E000884206D10121202000F010FA00212020AF
:1003F0001DE05949884206D10121402000F006FA4B
:100400000021402013E05549884206D10121802077
:1004100000F0FCF90021802009E0514988420AD10E
:1004200084150121204600F0F1F900212046BDE8A5
:10043000104000F0EBB910BDF0B5002201274FF0DD
:10044000030C0B6807FA02F52B40AB422CD106686F
:1004500053000CFA03F4A64306600E79D0F800E0CE
:100460009E4046EA0E0606600E79012E01D0022E4D
:1004700012D18668A64386604E79D0F808E09E4087
:1004800046EA0E0686604668AE43466045688E7949
:100490009640B6B235434560C568A543C560CC7982
:1004A0009C40C3681C43C460521C102AC9D3F0BDD1
:1004B0004FF6FF7101600021017141718171C171BD
:1004C000704708B541F480320092C261C161009961
:1004D000C161C169C069009008BD0246002012696F
:1004E0000A4200D001207047006980B2704702467E
:1004F000002052690A4200D001207047406980B252
:10050000704701837047418370470AB10183704788
:10051000418370474161704742694A404261704778
:100520004B07DB0E9A40C90810B500EB8100016A49
:100530000F249C40A1430162016A1143016210BD76
:10054000000002400004024000080240000C02408B
:10055000001002400014024000180240001C02403B
:1005600000200240EA48016841F001010160E84AC8
:100570000021083211600268E64B1A400260031D38
:10058000E54A1A60026822F480220260E0480C30DA
:1005900001607047DE490022891C0A7008707047AC
:1005A00002460020510901290CD002290CD0D8495B
:1005B0007431096802F01F02012393400B4200D0FE
:1005C00001207047D249F4E7D1497031F1E718B5FD
:1005D00000204FF4A06400903120FFF7E1FF009964
:1005E000491C0091A14201D00028F5D03120FFF72D
:1005F000D7FF002800D0012018BDC54A116821F09E
:10060000F80141EAC00010607047C44908607047B3
:10061000BF49002270310A700A70012802D00428F4
:1006200001D1052008707047BD490860704741EA54
:1006300082115A0810B5BB4B029C03EB02421143D6
:10064000014341EA0460B249091D086010BDB34985
:1006500008667047800140EA0170AD498431086046
:100660007047AE4988667047AC49C8647047A84B6C
:1006700008331A68084322F0EC6210431860704790
:10068000A34B08331A68084322F0784210431860DD
:1006900070479F4A0832116821F00301014311603D
:1006A00070479B480830006800F00C007047984A7B
:1006B0000832116821F0F001014311607047944A3B
:1006C0000832116821F4E051014311607047904AEB
:1006D0000832116821F4604141EAC000106070479F
:1006E00070B58B4B083319688F4C11F00C0104D096
:1006F0006610042903D0082903D004601BE00660BB
:1007000019E0834A121D1168C1F38055116801F088
:100710003F0115B1B6FBF1F101E0B4FBF1F1146852
:100720001268C4F388146143C2F30142521C5200A0
:10073000B1FBF2F1016019680F2202EA11117B4A44
:10074000545C0168E14041601C68072505EA942477
:10075000145D21FA04F484601B6805EA5333D25C0B
:10076000D140C16070BDC0F30121032908D1684B9D
:10077000083319686E4A21F4F81102400A431A60DE
:10078000634970310A68C0F30B0002430A60704786
:1007900063494439086070476149403908607047CF
:1007A0005E49C1F85C017047594A3032002911682E
:1007B00001D0014300E0814311607047544A343254
:1007C0000029116801D0014300E0814311607047A6
:1007D0004F4A38320029116801D0014300E08143BB
:1007E000116070474A4A40320029116801D0014324
:1007F00000E0814311607047454A44320029116886
:1008000001D0014300E0814311607047404A10323B
:100810000029116801D0014300E081431160704755
:100820003B4A14320029116801D0014300E08143A2
:1008300011607047364A18320029116801D001430F
:1008400000E0814311607047314A2032002911686D
:1008500001D0014300E08143116070472C4A2432EB
:100860000029116801D0014300E081431160704705
:10087000274A50320029116801D0014300E081432A
:1008800011607047224A54320029116801D0014397
:1008900000E08143116070471D4A583200291168F9
:1008A00001D0014300E0814311607047184A603273
:1008B0000029116801D0014300E0814311607047B5
:1008C000134A64320029116801D0014300E08143DA
:1008D000116070470E4A0D320029117801D0014392
:1008E00000E081431170704709487430016841F09D
:1008F0008071016070470146054A00200C32126881
:100900000A4200D00120704701490E31087070473B
:1009100000380240FFFFF6FE10300024000047427E
:10092000800E47420000FFFF0024F400000000207A
:10093000FFFCFF0FC74910B5884206D101211020E6
:10094000FFF78CFF0021102028E0C349884202D124
:1009500001214C0410E0C149884202D101218C04DC
:100960000AE0BF49884202D10121CC0404E0BD491C
:1009700088420AD101210C052046FFF765FF204679
:10098000BDE810400021FFF75FBFB749884209D199
:1009900001212020FFF762FF00212020BDE8104048
:1009A000FFF75CBF10BD7FB50446008A0D46C988BD
:1009B00020F4405001432182A08941F20C61884318
:1009C000A9882A8911436A8902431143A181A08A17
:1009D00020F44071A8890843A0826846FFF780FE92
:1009E0009C48844202D0A048844201D1039800E090
:1009F0000298A189090400EBC00101EB00102968ED
:100A000001D5490000E08900B0FBF1F06422B0FBA1
:100A1000F2F109010B096FF018056B4300EB83003D
:100A2000A3891D044FF0320306D503EBC000B0FBD1
:100A3000F2F000F0070005E003EB0010B0FBF2F06D
:100A400000F00F00084320817FBD4FF41651016074
:100A500000218180C18001810C2242818181704707
:100A600010B5028A4C8822F470630A8822438C886D
:100A7000C9880C4322431A43028210BD0021018021
:100A800041808180C18070470029818902D041F472
:100A9000005101E021F4005181817047028B02F482
:100AA0007F420283028B0A430283704700298189B7
:100AB00002D041F4004101E0C1F30E018181704791
:100AC0000029818A02D041F4006101E021F4006133
:100AD00081827047C1F30801818070478088C0F32C
:100AE00008007047028A22F00F020282028A0A433B
:100AF000028270470029818902D041F0020101E0A1
:100B000021F0020181817047828922F40062828192
:100B100082890A4382817047028A22F0200202827F
:100B2000028A0A43028270470029018A02D041F4F6
:100B3000804101E021F4804101827047818941F0C8
:100B40000101818170470029818A02D041F00801AA
:100B500001E021F0080181827047028BD2B202834A
:100B6000028B42EA0121018370470029818A02D069
:100B700041F0200101E021F020018182704700292D
:100B8000818A02D041F0100101E021F01001818240
:100B90007047828A22F004028282828A0A43828219
:100BA00070470029818A02D041F0020101E021F062
:100BB000020181827047002A828A01D00A4300E044
:100BC0008A438282704710B5C1F3421301F01F04BB
:100BD0000121A140012B07D0022B07D01430002A9D
:100BE000026805D00A4304E00C30F8E71030F6E75D
:100BF0008A43026010BD0246002012880A4200D0DB
:100C000001207047C9430180704770B501F01F058E
:100C100001260024C1F3421306FA05F2012B0FD07E
:100C2000022B0FD0838A4FEA11210088134206FA63
:100C300001F600EA060001D000B10124204670BD93
:100C40008389F0E7038AEEE70A0A01219140C9434C
:100C500001807047001001400044004000480040FF
:100C6000004C004000500040001401400CB5002230
:100C7000544900920192086840F4803008604FF4B3
:100C8000A063086800F4003001900098401C0090B8
:100C9000019810B900989842F3D10868800334D5C0
:100CA0000120019047484030026842F080520260C3
:100CB0004548026842F480420260424808300268B7
:100CC0000260026842F400420260026842F4A052EC
:100CD0000260031F3D4A1A600A6842F080720A608F
:100CE0000A689201FCD53A4940F205620A6001683F
:100CF00021F003010160016841F002010160016817
:100D0000C1F381010229FAD10CBD01920CBD314819
:100D100010B5016841F4700101602A48016841F092
:100D200001010160274A00210832116002682A4B44
:100D30001A400260031D294A1A60026822F48022C8
:100D4000026020480C300160FFF790FF21494FF00E
:100D500000608039086010BD70B51A4D08352868EC
:100D60001F4B204910F00C0004D05E10042803D063
:100D7000082803D00B601BE00E6019E0114A121D19
:100D80001068C0F38054106800F03F0014B1B6FB47
:100D9000F0F001E0B3FBF0F013681268C3F38813BE
:100DA0005843C2F30142521C5200B0FBF2F00860FB
:100DB00028680C4AC0F30310121D105C0A68C24078
:100DC0000A6070BD003802400070004008544007BF
:100DD000003C024088ED00E0FFFFF6FE10300024EA
:100DE0000024F400100000200FB4044910B503AA39
:100DF000029800F07BF810BC5DF814FB8400002022
:100E00002DE9F0410E460446002020622046E168AC
:100E1000884730B3252805D0D4E901219047206ABE
:100E2000401CF2E7E168204600278847050018D0FB
:100E3000A5F14100192802D820354FF40067324649
:100E4000294620462760FFF7D9F940B1012804D090
:100E5000F61D26F007060836D8E7361DD6E72846E1
:100E6000DAE7206ABDE8F08170B50C460546012A34
:100E700005D02878800600D5EA69002302E0012326
:100E800005E05B1C934202D2E05C0028F9D1A8691E
:100E9000E618C01AA861286A184428622846AFF3E9
:100EA000008004E0D5E9012114F8010B9047B44219
:100EB000F8D32846AFF3008070BD70477047704785
:100EC00010B5436913B1AFF3008001E0FFF7CCFF29
:100ED000012010BD127800F124010A7000224A702E
:100EE0000122EDE711684FF0FF32E9E7074B70B5DB
:100EF0000D467B4400F011F80446284600F020F827
:100F000010B14FF0FF3070BD204670BDE70A000001
:100F100001694A1C02610878704700B58FB0CDE9BD
:100F200001310021059105497944CDE903101146AD
:100F30006846FFF765FF0FB000BD0000E5FFFFFF4B
:100F4000007B00F08000704710B54248542100F04B
:100F5000CEFA4148542100F0CAFA4048542100F02A
:100F6000C6FA3F493B483C4A3F4B08603D490A604E
:100F70003A491960531C0365481C10650120086537
:100F80003B48344A39A1784400F008FA20B938487F
:100F900078440A3800F0A4FA37482F4A35A178443B
:100FA00000F0FCF920B9344878440A3800F098FA87
:100FB00032482A4A2FA1784400F0F0F920B92F488E
:100FC00078440A3800F08CFA40232248DC000021E3
:100FD000224600F0BFF920B125487844543800F08B
:100FE0007FFA1D4822464023002100F0B3F920B1CA
:100FF00021487844543800F073FA184822461023E8
:10100000002100F0A7F9002806D01C487844BDE86C
:101010001040563800F064BA10BD104870B5006D2D
:1010200020F001040B4800F02FFA0B4800F02CFAD6
:101030000A4800F029FA09E0206D20F00105204659
:1010400000F022FA204600F073F82C46002CF3D171
:1010500070BD00003000002084000020D800002077
:1010600024000020280000202C0000207200000036
:10107000760A000077000000620A00004E0A0000B5
:101080000EB5CDE9000100F0EDFB029069460120AC
:10109000ABBE0EBD08B5694600900220ABBE08BDD0
:1010A0001FB58DE8070069460520ABBE04B010BD32
:1010B0001FB58DE80F0069460620ABBEF6E708B500
:1010C000694600900920ABBE08BD1CB5CDE9000102
:1010D00069460A20ABBE1CBD704708B56946009042
:1010E0000C20ABBE08BD754600F028FAAE460500E0
:1010F0006946534620F00700854618B020B5FFF733
:1011000029F9BDE820404FF000064FF000074FF0EE
:1011100000084FF0000B21F00701AC46ACE8C00915
:10112000ACE8C009ACE8C009ACE8C0098D4670471E
:1011300070B50446051F00F007FA0068002C14BFC4
:10114000446870BD002C18BFAC423CBF20466468A8
:10115000F8D301680A18AA4218BF456003D12A686B
:1011600005461144016028684119A1421CBF6C600A
:1011700070BD6168696021680844286070BD2DE910
:10118000F04705460C46C86820F4201040F4800063
:10119000C860800602D5084600F023FBE06841F2F3
:1011A00082014FF0FF390140022903D0204600F0B0
:1011B000C1FAB5E000F42041B1F5004F0FD1C003F2
:1011C00006D56168E06A884200D80846606006E09B
:1011D0002069E06260606069FFF77FFFA061A0683E
:1011E0000022EEB200280DDAE1688B050AD4C04374
:1011F000A06041F490302260E0606068411C616052
:101200000670A5E0E0689046226040F40050E0607F
:10121000206968BB6069FFF752FF012704F12405CC
:10122000A0B1A08910F4407F08D0E06900F0D7F9A0
:10123000206118B1E06840F4006016E0E7612561C4
:10124000E06820F4407040F480600EE0E06900F057
:10125000C6F900282061F1D0E06840F4006010F485
:10126000407FE06002D140F48070E06020696060FF
:10127000E06825696FF0010AC1051FD56168E06A61
:10128000884200D80846411B04D02246284600F078
:101290005BFAF0BBE068010203D5E562C4E90158DE
:1012A00054E0691CE1626160E16940F48030491EEC
:1012B000C4E9021030462E70BDE8F087010202D565
:1012C00000F480320AE06068411C61600670E068EA
:1012D0000A2E40F48030E06006D00022E16A6068A7
:1012E000814203D90B4602E00122F7E70346A789B2
:1012F0005B1B7F0503D4E7699F4200DDE2B18142B9
:1013000000D80146E5620F1AC4E90158002B09DD37
:1013100000E005E022461946284600F015FA08B11B
:101320004846C9E747B1A069E5626560C01BA06196
:10133000E06840F01000E060E068000208D56168F5
:10134000A069E562491B08446560A0615046B3E7A7
:101350003046B1E770B5C468A50713D0650211D453
:10136000B2F5807F09D0B2F5007F06D0B2F5806F6C
:1013700008D1012300F1240106E05D1E6FF07F46D5
:10138000B54201D3012070BD0161C361416024F405
:1013900070611143C160002070BD00002DE9F04173
:1013A0000C4607461646104600F06EF82078611C81
:1013B00061280AD0722802D077283CD102E00125AA
:1013C000002405E00225042402E0082448F2020576
:1013D00011F8010B2B2806D0622809D011F8010C56
:1013E00074280AD00BE045F0030544F00204EFE74F
:1013F00045F0040544F00104EAE744F010043846DF
:101400002146FFF73DFE411C15D00021316171607E
:101410004FF40071F560F1617061200704D530462A
:101420000222002100F00AF9306D40F00100306521
:101430003046BDE8F0810020FBE72DE9F0410D4684
:101440000646104C206DC10704D0410804D020F09E
:101450000104F7E722460EE0542000F0C0F8070030
:101460000ED0206D47F00101084354212065384615
:1014700000F03DF83A4629463046BDE8F0418DE798
:101480000020D6E7300000202DE9F04704464FF059
:1014900000094FF0FF37C568D4E90486A80707D0D4
:1014A000204600F07BF93046FFF7F4FD002802DA11
:1014B0003846BDE8F087280502D54046FFF738FEDC
:1014C0004C21204600F013F8206D20F0010020652B
:1014D0004846EEE70446AFF300802046FEF7AAFE3A
:1014E00010B500F0A5F9BDE8104000F09BB94FF031
:1014F000000200B5134694469646203922BFA0E864
:101500000C50A0E80C50B1F12001BFF4F7AF09076F
:1015100028BFA0E80C5048BF0CC05DF804EB890060
:1015200028BF40F8042B08BF704748BF20F8022BA3
:1015300011F0804F18BF00F8012B7047004870472A
:101540002C01002070470000004870473401002043
:10155000704770477047704738B504460A46002008
:101560006946AFF30080002808BF38BD02460099E5
:10157000204600F0A4F9012038BD012000F0F3B9A5
:10158000F8B5AFF30080054600200C46102000BFE0
:101590000646A819A0420DD9324669460020AFF38D
:1015A0000080070008BF00F0DEF90098A04218BFD5
:1015B0000546C419FFF7C8FF05600746F01D20F077
:1015C00007004619284600F073F9B44208BFF8BD79
:1015D000A21B31463868BDE8F84000F070B970B51C
:1015E0000646FFF7B1FF056806F10B0020F007047F
:1015F000B4429CBF002070BD2B466A68BAB1106827
:10160000A04210D304F1080188423CBF50685860E2
:1016100007D35168101941601168091B01605860B7
:101620001460101D70BD13465268002AE7D1214690
:101630002846FFF791FF0028DED170BD2DE9F0416B
:10164000044616460D464769007B80072ED0384673
:10165000FFF735FD50BB3EB3012E02D0022E25D13F
:1016600004E0204600F045F905441DE03846FFF748
:1016700034FDE168002841F01001E16005DA204600
:1016800000F058F80120BDE8F081C9030BD562686D
:10169000E16A914200D81146A26911442269891A6F
:1016A000814200DD08460544002D01DA0220EAE708
:1016B000E16A6068E268814206D29103E06203D584
:1016C00022F4003141F01002A6690027AE4213DC7B
:1016D000E16A814201D90B4600E0034603EB060CA8
:1016E0002369ACEB030CAC4506DD814201D98C4685
:1016F00000E084469C4505D1A760276042F02000A9
:10170000A5620DE0AD1BE669AE1B8142A66000D963
:101710000846C01A281A20605819606022F020007C
:1017200003490840E060002084F84870ABE70000FF
:10173000BFCFD7FFC16821F4001141F08001C16023
:1017400000218160016070472DE9F0478146144611
:101750000E464FF0FF383248D5685769054209D028
:101760003846A169FFF7B1FC002811DB2C48C043C3
:101770000540E5602B46324649463846FFF790FC67
:10178000A16920F00042B21A11440028A16103D0DF
:101790002046FFF7CFFF4046BDE8F08770B504460E
:1017A0000569C06A6168884200D80846E16821F48A
:1017B0002011E160C90312D5A84208D02246411B7E
:1017C0002846FFF7C1FF10B14FF0FF3070BD002079
:1017D000E562C4E90150E06820F48030E060002058
:1017E00070BD10B50446C06820F02000E060A16A1A
:1017F000A06988420DD02046FFF7D0FFE06820F4B2
:10180000405040F01000E060A06AA0612069E062F2
:10181000606044F24001E0688843E06010BD000071
:1018200010000200002801D000F03CB87047000012
:1018300010B5014602A000F07DF8012010BD0000A7
:1018400053494752545245443A205265646972657F
:1018500063743A2063616E2774206F70656E3A205E
:101860000000000010B5431C02E010F8011B71B12C
:101870008107FAD14FF0013202C88C1A8C4314EA66
:10188000C211F9D0C01A0A0603D0C01E10BDC01A7A
:1018900010BD0A0401D0801E10BD0902FCD0401EFC
:1018A00010BD000001491820ABBEFEE72600020073
:1018B00000210160C0E90110704710207047034605
:1018C00040688C46002818BF88423CBF03464068E9
:1018D000F8D318681844884207D00CF1030020F0B0
:1018E0000700001D411A521A0146081D0A60FFF741
:1018F0001FBC10B50146C268900703D0900607D5FB
:10190000886A0AE000F03EF801210160881E10BDDF
:101910008B69486818440B69C01A91F848301BB1AC
:1019200091F84910401A10BD1103FCD50028FADDCA
:10193000401E10BD70B505460C460A2000E06D1C27
:1019400000F018F835B128780028F8D102E0641CBE
:1019500000F010F814B120780028F8D1BDE87040EC
:101960000A2000F007B810B500F010F8BDE81040EC
:10197000FFF758BF08B569468DF800000320ABBEDD
:1019800008BD0000004870472C01002010B5012858
:1019900005D0002103A0FFF7CDFF012010BD09A154
:1019A000F8E7000053494752544D454D3A204F75D2
:1019B00074206F662068656170206D656D6F727947
:1019C000000000003A2048656170206D656D6F72FF
:1019D0007920636F72727570746564008A68002A7A
:1019E00001DCFFF7CCBB521E8A604A68C0B2531CB0
:1019F0004B60107070474FF04070E1EE100A704776
:101A00003A7474003A7474003A7474002C1A000822
:101A10000000002030000000C40100085C1A00082B
:101A20003000002060070000E00100080000000016
:101A3000010203040102030406070809007A030AED
:101A4000000000000000000001020304060708096E
:0C1A50000000000000000000000000008A
:040000050800018965
:00000001FF
