:020000040800F2
:1000000088060020E5040008950200089702000811
:10001000990200089B0200089D02000800000000F1
:100020000000000000000000000000009F02000827
:10003000A102000800000000A3020008A5020008B9
:10004000FF040008FF040008FF040008FF04000884
:10005000FF040008FF040008FF040008FF04000874
:10006000FF040008FF040008FF040008FF04000864
:10007000FF040008FF040008FF040008FF04000854
:10008000FF040008FF040008FF040008FF04000844
:10009000FF040008FF040008FF040008FF04000834
:1000A000FF040008FF040008FF040008FF04000824
:1000B000FF040008FF040008FF040008FF04000814
:1000C000FF040008FF040008FF040008FF04000804
:1000D000FF040008A7020008FF040008FF0400084E
:1000E000FF040008FF040008FF040008FF040008E4
:1000F000FF040008FF040008FF040008FF040008D4
:10010000FF040008FF040008FF040008FF040008C3
:10011000FF040008FF040008FF040008FF040008B3
:10012000FF040008FF040008FF040008FF040008A3
:10013000FF040008FF040008FF040008FF04000893
:10014000FF040008FF040008FF040008FF04000883
:10015000FF040008FF040008FF040008FF04000873
:10016000FF040008FF040008FF040008FF04000863
:10017000FF040008FF040008FF040008FF04000853
:10018000FF040008FF04000800F002F800F041F846
:100190000AA090E8000C82448344AAF10107DA45E2
:1001A00001D100F036F8AFF2090EBAE80F0013F0F3
:1001B000010F18BFFB1A43F0010318475C10000041
:1001C0007C100000103A24BF78C878C1FAD85207D2
:1001D00024BF30C830C144BF04680C6070470000C1
:1001E0000023002400250026103A28BF78C1FBD840
:1001F000520728BF30C148BF0B607047632900F029
:100200009A87002070471FB501F000F81FBD10B598
:1002100010BD00F0CBFF1146FFF7F5FF00F00DF821
:1002200000F0E9FF03B4FFF7F2FF03BC00F041F96F
:1002300000E0401E0028FCD1704700F065F8124C29
:100240004021204600F08BFA1021104800F089FA76
:1002500000F088F86421491EFDD14FF4004120468A
:1002600000F07DFA6420401EFDD1094C0621204695
:1002700000F05EFD6421491EFDD14021204600F0C2
:10028000E8FD0028F9D0FEE7000002400008024027
:10029000004400407047FEE7FEE7FEE7FEE77047D8
:1002A00070477047704710B5084C40F22551204602
:1002B00000F0D9FD002808D0204600F03DFD0146A1
:1002C000BDE8104002A000F0BFBE10BD00480040D5
:1002D0000A0D555341525420487970657274657205
:1002E0006D696E616C20496E74657272757074739D
:1002F0002052656365697665206120776F72643A84
:100300002025630A0D0000007CB50121042000F0C7
:1003100079FB0121084600F075FB01248DF80440AB
:10032000002613208DF80660032500908DF80550F7
:100330008DF807406946094800F0ACF98DF8044093
:1003400048F240108DF8066000908DF805508DF849
:1003500007406946024800F09DF97CBD0008024054
:1003600000000240F0B5012187B0084600F04AFBCA
:100370000121480400F064FB564F07220221384651
:1003800000F0FCF907220321384600F0F7F90225B6
:100390008DF8045000248DF806408DF80550012694
:1003A00000958DF807606946384600F073F9032020
:1003B0008DF8045000908DF806608DF8074069466E
:1003C000384600F067F94FF4E130ADF80C40029088
:1003D000ADF80E40ADF81040ADF814400C203E4C86
:1003E000ADF8120002A9204600F00BFC01212046C6
:1003F00000F078FC07B0F0BD70B586B00121022096
:1004000000F000FB0121880400F01AFB334E0722A4
:100410000A21304600F0B2F907220B21304600F0E5
:10042000ADF902250A208DF80450002400908DF8C3
:1004300006408DF8055001208DF8070069463046CA
:1004400000F028F90B2000908DF8045069463046E2
:1004500000F020F94FF4E130ADF80C400290ADF817
:100460000E40ADF81040ADF814400C201C4CADF817
:10047000120002A9204600F0C4FB012240F22551DF
:10048000204600F0CEFC0121204600F02BFC06B0F7
:1004900070BD08B527208DF8000001208DF80100FF
:1004A00000218DF802108DF80300684600F03FF837
:1004B00008BD704770B50A4D0446C1B2284600F029
:1004C00037FC4021284600F0C4FC0028F9D0204623
:1004D00070BD0000000002400044004000040240E3
:1004E000004800400948804709480047FEE7FEE70A
:1004F000FEE7FEE7FEE7FEE7FEE7FEE7FEE7FEE7D4
:1005000004480549054A064B704700006B0F000878
:100510008901000888000020880600208802002049
:10052000880200202849084328490860704730B5F0
:100530000F23C27801780125FAB1244A126801F12B
:10054000E02102F4E062C2F5E062C2F30722C2F1E8
:100550000404D3404278A24084781C401443220112
:1005600081F80024007800F01F018D4040098000D0
:1005700000F1E020C0F8005130BD01F01F008540BF
:100580004809800000F1E020C0F8805130BD104AD9
:10059000114001430D48001F016070470B4A121DB6
:1005A0000029116801D0014300E0814311607047C8
:1005B0004FF0E0210428086903D020F0040008610E
:1005C000704740F00400FAE70000FA050CED00E087
:1005D00080FFFF1F714910B5884206D101210846EE
:1005E00000F042FA002101204FE06D49884206D117
:1005F0000121022000F038FA0021022045E069497B
:10060000884206D10121042000F02EFA00210420A6
:100610003BE06549884206D10121082000F024FA18
:100620000021082031E06149884206D101211020D3
:1006300000F01AFA0021102027E05D49884206D117
:100640000121202000F010FA002120201DE059494E
:10065000884206D10121402000F006FA0021402006
:1006600013E05549884206D10121802000F0FCF9B1
:100670000021802009E0514988420AD184150121D6
:10068000204600F0F1F900212046BDE8104000F0BE
:10069000EBB910BDF0B5002201274FF0030C0B6839
:1006A00007FA02F52B40AB422CD1066853000CFA36
:1006B00003F4A64306600E79D0F800E09E4046EAB7
:1006C0000E0606600E79012E01D0022E12D1866828
:1006D000A64386604E79D0F808E09E4046EA0E06B2
:1006E00086604668AE43466045688E799640B6B2ED
:1006F00035434560C568A543C560CC799C40C36857
:100700001C43C460521C102AC9D3F0BD4FF6FF71C0
:1007100001600021017141718171C171704708B59B
:1007200041F480320092C261C1610099C161C16926
:10073000C069009008BD0246002012690A4200D03C
:1007400001207047006980B270470246002052695C
:100750000A4200D001207047406980B2704701838F
:100760007047418370470AB10183704741837047E6
:100770004161704742694A40426170474B07DB0E56
:100780009A40C90810B500EB8100016A0F249C4013
:10079000A1430162016A1143016210BD00000240E1
:1007A0000004024000080240000C02400010024019
:1007B0000014024000180240001C024000200240C9
:1007C000EA48016841F001010160E84A002108326D
:1007D00011600268E64B1A400260031DE54A1A6088
:1007E000026822F480220260E0480C300160704709
:1007F000DE490022891C0A700870704702460020FA
:10080000510901290CD002290CD0D849743109684A
:1008100002F01F02012393400B4200D001207047D9
:10082000D249F4E7D1497031F1E718B500204FF40F
:10083000A06400903120FFF7E1FF0099491C00916E
:10084000A14201D00028F5D03120FFF7D7FF0028C2
:1008500000D0012018BDC54A116821F0F80141EA15
:10086000C00010607047C44908607047BF4900224B
:1008700070310A700A70012802D0042801D10520C5
:1008800008707047BD490860704741EA82115A08F4
:1008900010B5BB4B029C03EB02421143014341EAFA
:1008A0000460B249091D086010BDB349086670476D
:1008B000800140EA0170AD49843108607047AE495B
:1008C00088667047AC49C8647047A84B08331A68FB
:1008D000084322F0EC62104318607047A34B0833C2
:1008E0001A68084322F078421043186070479F4A04
:1008F0000832116821F003010143116070479B48E1
:100900000830006800F00C007047984A08321168FF
:1009100021F0F001014311607047944A08321168D8
:1009200021F4E051014311607047904A0832116888
:1009300021F4604141EAC0001060704770B58B4BF4
:10094000083319688F4C11F00C0104D0661004298B
:1009500003D0082903D004601BE0066019E0834A35
:10096000121D1168C1F38055116801F03F0115B1E6
:10097000B6FBF1F101E0B4FBF1F114681268C4F3C5
:1009800088146143C2F30142521C5200B1FBF2F1E0
:10099000016019680F2202EA11117B4A545C016858
:1009A000E14041601C68072505EA9424145D21FAA2
:1009B00004F484601B6805EA5333D25CD140C16003
:1009C00070BDC0F30121032908D1684B08331968B1
:1009D0006E4A21F4F81102400A431A6063497031EB
:1009E0000A68C0F30B0002430A6070476349443948
:1009F0000860704761494039086070475E49C1F836
:100A00005C017047594A30320029116801D0014316
:100A100000E0814311607047544A34320029116864
:100A200001D0014300E08143116070474F4A3832E2
:100A30000029116801D0014300E081431160704733
:100A40004A4A40320029116801D0014300E0814345
:100A500011607047454A44320029116801D00143B2
:100A600000E0814311607047404A1032002911684C
:100A700001D0014300E08143116070473B4A1432CA
:100A80000029116801D0014300E0814311607047E3
:100A9000364A18320029116801D0014300E0814331
:100AA00011607047314A20320029116801D001439A
:100AB00000E08143116070472C4A243200291168FC
:100AC00001D0014300E0814311607047274A503252
:100AD0000029116801D0014300E081431160704793
:100AE000224A54320029116801D0014300E08143B9
:100AF000116070471D4A58320029116801D0014326
:100B000000E0814311607047184A60320029116883
:100B100001D0014300E0814311607047134A643201
:100B20000029116801D0014300E081431160704742
:100B30000E4A0D320029117801D0014300E08143B3
:100B40001170704709487430016841F0807101608C
:100B500070470146054A00200C3212680A4200D054
:100B60000120704701490E3108707047003802407B
:100B7000FFFFF6FE1030002400004742800E47427F
:100B80000000FFFF0024F40004000020FFFCFF0F22
:100B9000C74910B5884206D101211020FFF78CFF0C
:100BA0000021102028E0C349884202D101214C04D1
:100BB00010E0C149884202D101218C040AE0BF49FA
:100BC000884202D10121CC0404E0BD4988420AD107
:100BD00001210C052046FFF765FF2046BDE81040C7
:100BE0000021FFF75FBFB749884209D101212020CA
:100BF000FFF762FF00212020BDE81040FFF75CBF37
:100C000010BD7FB50446008A0D46C98820F44050C7
:100C100001432182A08941F20C618843A9882A8975
:100C200011436A8902431143A181A08A20F44071D3
:100C3000A8890843A0826846FFF780FE9C4884424A
:100C400002D0A048844201D1039800E00298A18913
:100C5000090400EBC00101EB0010296801D549002F
:100C600000E08900B0FBF1F06422B0FBF2F1090171
:100C70000B096FF018056B4300EB8300A3891D047B
:100C80004FF0320306D503EBC000B0FBF2F000F0EA
:100C9000070005E003EB0010B0FBF2F000F00F00DE
:100CA000084320817FBD4FF41651016000218180EF
:100CB000C18001810C2242818181704710B5028A76
:100CC0004C8822F470630A8822438C88C9880C43BC
:100CD00022431A43028210BD00210180418081809D
:100CE000C18070470029818902D041F4005101E0A0
:100CF00021F4005181817047028B02F47F4202830C
:100D0000028B0A43028370470029818902D041F493
:100D1000004101E0C1F30E01818170470029818A01
:100D200002D041F4006101E021F40061818270474A
:100D3000C1F30801818070478088C0F308007047C4
:100D4000028A22F00F020282028A0A43028270475C
:100D50000029818902D041F0020101E021F0020165
:100D600081817047828922F40062828182890A43EC
:100D700082817047028A22F020020282028A0A439C
:100D8000028270470029018A02D041F4804101E0CB
:100D900021F4804101827047818941F00101818104
:100DA00070470029818A02D041F0080101E021F05A
:100DB000080181827047028BD2B20283028B42EA21
:100DC0000121018370470029818A02D041F020016E
:100DD00001E021F02001818270470029818A02D040
:100DE00041F0100101E021F0100181827047828AF8
:100DF00022F004028282828A0A438282704700299A
:100E0000818A02D041F0020101E021F002018182D9
:100E10007047002A828A01D00A4300E08A43828216
:100E2000704710B5C1F3421301F01F040121A14026
:100E3000012B07D0022B07D01430002A026805D0FE
:100E40000A4304E00C30F8E71030F6E78A4302600A
:100E500010BD0246002012880A4200D001207047CF
:100E6000C9430180704770B501F01F0501260024B9
:100E7000C1F3421306FA05F2012B0FD0022B0FD05B
:100E8000838A4FEA11210088134206FA01F600EA2C
:100E9000060001D000B10124204670BD8389F0E72F
:100EA000038AEEE70A0A01219140C9430180704795
:100EB000001001400044004000480040004C004049
:100EC00000500040001401400CB50022544900922B
:100ED0000192086840F4803008604FF4A06308680D
:100EE00000F4003001900098401C0090019810B967
:100EF00000989842F3D10868800334D5012001900E
:100F000047484030026842F080520260454802681B
:100F100042F480420260424808300268026002687F
:100F200042F400420260026842F4A0520260031FD1
:100F30003D4A1A600A6842F080720A600A689201AB
:100F4000FCD53A4940F205620A60016821F00301CC
:100F50000160016841F0020101600168C1F3810193
:100F60000229FAD10CBD01920CBD314810B50168BF
:100F700041F4700101602A48016841F001010160FB
:100F8000274A00210832116002682A4B1A40026089
:100F9000031D294A1A60026822F480220260204858
:100FA0000C300160FFF790FF21494FF0006080395D
:100FB000086010BD70B51A4D083528681F4B2049D0
:100FC00010F00C0004D05E10042803D0082803D0D1
:100FD0000B601BE00E6019E0114A121D1068C0F38F
:100FE0008054106800F03F0014B1B6FBF0F001E04F
:100FF000B3FBF0F013681268C3F388135843C2F3CD
:101000000142521C5200B0FBF2F0086028680C4A02
:10101000C0F30310121D105C0A68C2400A6070BD64
:10102000003802400070004008544007003C024075
:1010300088ED00E0FFFFF6FE103000240024F400ED
:1010400014000020704700000FB4044910B503AA33
:10105000029800F07DF810BC5DF814FB0000002041
:101060002DE9F0410E460446002020622046E1684A
:10107000884730B3252805D0D4E901219047206A5C
:10108000401CF2E7E168204600278847050018D099
:10109000A5F14100192802D820354FF400673246E7
:1010A000294620462760FFF7A9F840B1012804D05F
:1010B000F61D26F007060836D8E7361DD6E728467F
:1010C000DAE7206ABDE8F08170B50C460546012AD2
:1010D00005D02878800600D5EA69002302E00123C4
:1010E00005E05B1C934202D2E05C0028F9D1A869BC
:1010F000E618C01AA861286A184428622846AFF387
:10110000008004E0D5E9012114F8010B9047B442B6
:10111000F8D32846AFF3008070BD70477047704722
:10112000704710B5436913B1AFF3008001E0FFF7DA
:10113000CBFF012010BD127800F124010A700022BB
:101140004A700122EDE711684FF0FF32E9E7000035
:10115000074B70B50D467B4400F011F80446284655
:1011600000F020F810B14FF0FF3070BD204670BD88
:101170005BF3FFFF01694A1C02610878704700B504
:101180008FB0CDE901310021059105497944CDE9C0
:10119000031011466846FFF763FF0FB000BD000063
:1011A000E5FFFFFF007B00F080007047754600F010
:1011B00029F8AE4605006946534620F007008546EB
:1011C00018B020B5FFF79CF9BDE820404FF00006AD
:1011D0004FF000074FF000084FF0000B21F007011F
:1011E000AC46ACE8C009ACE8C009ACE8C009ACE862
:1011F000C0098D4670470446AFF300802046FFF7D4
:1012000011F8000000487047280000204FF040709F
:10121000E1EE100A704700003812000800000020BC
:1012200028000000C4010008601200082800002007
:1012300060060000E001000800000000000000005F
:10124000010203040102030406070809007A030AE5
:101250000000000000000000010203040607080966
:040000050800018965
:00000001FF
